:100000004015002005CA000085C70000A146000079
:1000100013CA000013CA000013CA000013CA00006C
:1000200000000000000000000000000013CA0000F3
:1000300013CA000000000000EB4500007DE4000052
:100040002FB100005FB00000EBB1000035B200003E
:10005000FDBC0000000000000000000000000000E7
:100060000000000000000000000000000000000090
:100070000000000000000000000000000000000080
:100080000000000000000000000000000000000070
:100090000000000000000000000000000000000060
:1000A0000000000000000000000000000000000050
:1000B0000000000000000000000000000000000040
:1000C0000000000000000000000000000000000030
:1000D0000000000000000000000000000000000020
:1000E0000000000000000000000000000000000010
:1000F0000000000000000000000000000000000000
:1001000000000000000000000000000000000000EF
:1001100000000000000000000000000000000000DF
:1001200000000000000000000000000000000000CF
:1001300000000000000000000000000000000000BF
:1001400000000000000000000000000000000000AF
:10015000000000000000000000000000000000009F
:10016000000000000000000000000000000000008F
:10017000000000000000000000000000000000007F
:10018000000000000000000000000000000000006F
:10019000000000000000000000000000000000005F
:1001A000000000000000000000000000000000004F
:1001B000000000000000000000000000000000003F
:1001C000FFFFFFFFFFFFFFFFFFFFFFFFFFFFFFFF3F
:1001D000FFFFFFFFFFFFFFFFFFFFFFFFFFFFFFFF2F
:1001E000FFFFFFFFFFFFFFFFFFFFFFFFFFFFFFFF1F
:1001F000FFFFFFFFFFFFFFFFFFFFFFFFFFFFFFFF0F
:1002000010B5054C237833B9044B13B1044800E012
:1002100000BF0123237010BD300500200000000046
:10022000784B010008B5034B1BB10349034800E0BC
:1002300000BF08BD0000000034050020784B01001D
:1002400080B584B000AF0023FB601B4800F04CFA7F
:10025000B860BB68002B04D11749184801F0F4FFBF
:1002600027E00421B86808F071FFF8600421B8683D
:1002700008F04EFF78600421B86808F091FFF8603C
:100280007B684FF4A57202FB03F31B0B3B603B68DA
:100290000B4AA2FB032359093A68094BA3FB02034B
:1002A0005B09642000FB03F3D31A1A46054801F0EA
:1002B000CBFF1037BD4680BD6C06010074060100FF
:1002C0001F85EB51A406010080B58CB000AF1C4B1C
:1002D0007B606823FB604FF6FF733B823B1D194632
:1002E00018480DF03BFE01214FF4837009F0DAF954
:1002F00007F124031946F86A0DF000F8B7F9243025
:100300001946B7F926301A46B7F928300E4801F0D9
:100310009BFF07F11C031946F86A0CF0ABFFB7F915
:100320001C301946B7F91E301A46B7F92030064876
:1003300001F08AFF4FF47A7003F060FBD8E700BF4A
:10034000C0060100C8060100CC06010080B582B0DD
:1003500000AF7860034801F077FF00BF0837BD4663
:1003600080BD00BFEC06010080B582B000AF13482D
:1003700009F0D6F903467B607968114801F064FF03
:10038000786800230F4A002109F016F938603B68AD
:10039000002B02D00C4801F057FF7B680121184662
:1003A00009F038F938603B68002B02D0074801F0AB
:1003B0004BFF00BF0837BD4680BD00BF00070100EE
:1003C000080701004D030000200701003807010065
:1003D00080B400AF034B1B681846BD465DF8047B34
:1003E000704700BF4C05002080B582B000AF1B4BAA
:1003F0001B68002B02D0194B1B68984704F0DEF8ED
:100400007860174B1B680133154A136003F068F9D5
:1004100038603B689B6C5A1E3B689A643B689B6CD7
:10042000002B12D13B685A6C3B689A643B6893F886
:10043000343043F00803DAB23B6883F8342078683C
:1004400004F0C0F802F054FE02E0786804F0BAF854
:1004500003F028FF00BF0837BD4680BD50050020CF
:100460004C05002080B485B000AF78607B68002B1D
:1004700003DA4FF0FF33FB6027E07B68164A82FB0C
:1004800003129211DB17D31A4FF47A7202FB03F3B3
:10049000FB607A68104B83FB02139911D317CB1AB8
:1004A0004FF47A7101FB03F3D31A4FF47A7202FB13
:1004B00003F303F2E733084A82FB03129211DB17BE
:1004C000D31A1A46FB681344FB60FB6818461437BE
:1004D000BD465DF8047B7047D34D621080B400AF19
:1004E00000231846BD465DF8047B704780B400AF1A
:1004F00000231846BD465DF8047B704780B400AF0A
:1005000000231846BD465DF8047B704780B400AFF9
:1005100000231846BD465DF8047B704780B582B065
:1005200000AF094B7B6005E07B681B6898477B68E0
:1005300004337B607B68054A9342F5D300BF00BF5C
:100540000837BD4680BD00BF500601005C060100B3
:1005500080B582B000AF094B7B6005E07B681B680B
:1005600098477B6804337B607B68054A9342F5D3E8
:1005700000BF00BF0837BD4680BD00BF5C0601005C
:100580006806010080B500AF00F036F80023184679
:1005900080BD80B582B000AF7860FFF7D9FF0AF068
:1005A00059FA00BF0837BD4680BDFFFF80B584B053
:1005B00002AF142301930A2300934FF40063002237
:1005C00009490A4803F03AF978607B68002B04D1A6
:1005D000D5220749074801F075FF786803F08CF8C9
:1005E00000BF0837BD4680BD93050000900701009D
:1005F000A80701009807010080B500AF03F0DEFFF7
:100600000DF046FF01F0F8F903F08AFF02F038FD23
:10061000FFF7CCFF03F09EFF00F0E0FA02F04CFD84
:100620000023184680BD80B584B000AFF860B96083
:100630001346FB80FB68002B02D14FF0FF3318E01C
:10064000B86800F051F80346002B02D04FF0FF339A
:100650000FE0FB68BA680921184602F083FAFB68CC
:10066000FA88DA82FB6800229A76FB6800221A83F5
:10067000002318461037BD4680BDFFFF80B582B00D
:1006800000AF78607B68002B04D1562212491348D2
:1006900001F018FF7B68184602F0C0FB0346092BE7
:1006A00004D057220C490E4801F00CFF7B68184615
:1006B00002F096FB0346002B04D158220649094854
:1006C00001F000FF7B68184602F0B2FA00231846DA
:1006D0000837BD4680BD00BFB0080100BC0701005F
:1006E000CC0701000808010080B582B000AF786037
:1006F0000921786802F0ACFB034618460837BD466E
:1007000080BDFFFF80B584B000AF78600B467B8072
:100710000023FB607B68002B04D1D0223A493B4880
:1007200001F0D0FE7B68184602F078FB0346092BE7
:1007300004D0D1223449364801F0C4FE7B68DB8AFC
:1007400003F01003002B1AD17B685B6A002B0FD0DB
:100750007B685B6A78689847F860FB68002B07D075
:100760007B68FA6819462B4801F06EFDFB6847E08C
:100770007B68DB8A43F010039AB27B68DA827B687D
:10078000DB8A03F00803002B08D07B681B8B03F087
:100790000803002B02D06FF0060331E07B689B6AF0
:1007A000002B07D07B689B6A7A8811467868984747
:1007B000F86007E07B8823F0F0031B051B0D9AB25D
:1007C0007B681A83FB68002B03D0FB6813F1060FCC
:1007D00015D17B681B8B43F008039AB27B681A83A0
:1007E0007B689B7E0133DAB27B689A767B689B7E5E
:1007F000002B04D1FF220449074801F063FEFB6887
:1008000018461037BD4680BDC8080100BC0701006E
:10081000CC070100640801009C08010080B584B089
:1008200000AF78600023FB607B68002B05D14FF49C
:1008300089721E491E4801F045FE7B68184602F089
:10084000EDFA0346092B05D040F213121749194857
:1008500001F038FE7B689B7E002B02D14FF0FF3306
:100860001FE07B689B7E013BDAB27B689A767B68EF
:100870009B7E002B01D0002313E07B68DB6A002BFA
:1008800004D07B68DB6A78689847F860FB68002BC7
:1008900003D0FB6813F1060F02D17B6800221A8394
:1008A000FB6818461037BD4680BD00BFD808010060
:1008B000BC070100CC07010090B585B000AFF8601F
:1008C000B9607A603B60FB68002B05D14FF4A072E1
:1008D0001849194801F0F6FDFB68184602F09EFA27
:1008E0000346092B05D040F241121249134801F08A
:1008F000E9FDFB689B7E002B05D14FF0FF3000F037
:10090000CDFE002311E0FB681B6B002B08D0FB68B9
:100910001C6B3B687A68B968F868A047034604E036
:100920006FF0050000F0BAFE002318461437BD46EC
:1009300090BD00BFE8080100BC070100CC07010022
:1009400090B585B000AFF860B9607A603B60FB6835
:10095000002B05D140F26B121849194801F0B2FD85
:10096000FB68184602F05AFA0346092B05D04FF4EB
:10097000B6721249134801F0A5FDFB689B7E002B5F
:1009800005D14FF0FF3000F089FE002311E0FB6835
:100990005B6B002B08D0FB685C6B3B687A68B968BE
:1009A000F868A047034604E06FF0050000F076FE0B
:1009B000002318461437BD4690BD00BFF80801005B
:1009C000BC070100CC07010080B584B000AFF8601F
:1009D000B9607A60FB68002B05D140F28F12114993
:1009E000114801F06FFDFB68184602F017FA034644
:1009F000092B05D04FF4C8720A490C4801F062FD7A
:100A0000FB689B6B002B07D0FB689B6B7A68B9680F
:100A1000F8689847034601E06FF005031846103761
:100A2000BD4680BD08090100BC070100CC070100DC
:100A300080B582B000AF786039607B68002B05D14B
:100A400040F2AB120C490D4801F03CFD7B681846A2
:100A500002F0E4F90346092B05D04FF4D67206499B
:100A6000074801F02FFD7B683A68DA6100231846D9
:100A70000837BD4680BD00BF1C090100BC0701004E
:100A8000CC07010080B483B000AF786039607B6828
:100A90001B683A685A607B681A683B681A607B6812
:100AA0003A681A603B687A685A6000BF0C37BD46E6
:100AB0005DF8047B704780B483B000AF78607B68DA
:100AC0001B687A6852685A607B685B687A6812684B
:100AD0001A607B687A685A607B685A687B681A601B
:100AE00000BF0C37BD465DF8047B704780B582B00F
:100AF00000AF78607B68143319460348FFF7C2FFE4
:100B000000BF0837BD4680BD0000002090B583B00F
:100B100000AF00237B600D4B3B603B681B683A686D
:100B20009A420ED03B681B68143B7B6003F046FD85
:100B300004467B6814331846FFF7BDFF204603F0D8
:100B400041FD7B6818460C37BD4690BD0000002073
:100B500080B582B000AFFFF7D9FF78607B68002BCB
:100B60001BD07B689B6F3B603B68002B02D03B68CF
:100B700078689847786802F033F90346012B03D16F
:100B8000786802F055F8E6E77B689B6A184601F042
:100B900067FC786802F0E6F8DDE700BF00BF0837C1
:100BA000BD4680BD80B584B000AF78600023FB6097
:100BB0000CE0094AFB6852F82330BB60BB68002B8D
:100BC00001D0BB689847FB680133FB60FB68032BCF
:100BD000EFD9FFF7BDFFE9E7D406002080B588B064
:100BE00004AF0023FB6024E03B1DFA68154918465A
:100BF00001F0D2FAFB68DB01134A9818FB681B026C
:100C0000124A1344391D202203921F2202924FF4EC
:100C100080720192009300230D4A02F029FDFB68C7
:100C2000DB01094A1344184602F066FDFB680133F4
:100C3000FB60FB68002BD7D000BF00BF1037BD465C
:100C400080BD00BF3809010054050020D4050020F4
:100C5000A50B000080B483B000AF78607B687A6831
:100C60005A607B685A687B681A6000BF0C37BD46C3
:100C70005DF8047B704780B483B000AF7860396062
:100C80007B685B683A681A607B685A683B685A60A0
:100C90007B683A685A603B687A681A6000BF0C3714
:100CA000BD465DF8047B704780B483B000AF7860C8
:100CB0007B681B687A689A420CBF01230023DBB271
:100CC00018460C37BD465DF8047B704780B582B08E
:100CD00000AF78607B6814331846FFF7BBFF002332
:100CE00018460837BD4680BD80B586B000AFF860B5
:100CF000B9601346FB71B86802F00EFFFB79002B58
:100D000002D0012B07D031E0BB6814331946F868D4
:100D1000FFF7B1FF31E0FB681B687B6117E07B697F
:100D2000143B3B61BB6893F835203B6993F8353041
:100D30009A4209D23B6903F11402BB681433194685
:100D40001046FFF798FF06E07B691B687B617A69B4
:100D5000FB689A42E3D17A69FB689A420CD1BB687E
:100D600014331946F868FFF786FF05E0A32205490A
:100D7000054801F0A7FB00E000BF00231846183724
:100D8000BD4680BD480E01004009010080B584B019
:100D900000AF78607B681B68143BFB60F86802F06A
:100DA0001FFF002318461037BD4680BD80B584B0B4
:100DB00000AFF860B9607A60FB70FB68002B05D16A
:100DC0004FF496721749184801F07CFB7B68B3F525
:100DD000803F05D340F22D121249144801F072FBF6
:100DE000FB78002B08D0FB78012B05D04FF49772CD
:100DF0000C490F4801F066FBFB68BA6802211846EF
:100E000001F0B0FEFB681846FFF760FF7B689AB2FE
:100E1000FB689A83FB68FA785A72002318461037E9
:100E2000BD4680BD200E01004409010054090100A7
:100E30006809010080B586B000AFF860B96013465C
:100E4000FB71BB68B3F5803F05D340F289121F499F
:100E50001F4801F037FBFB79002B08D0FB79012BF1
:100E600005D04FF4C57219491A4801F02BFB03F065
:100E7000A5FB786100F0FEFB0346002B09D0134967
:100E8000154801F0E1F94FF4C6721049134801F01A
:100E900019FB786903F096FBF968022001F0F6FE71
:100EA00038613B69002B01D13B690BE03B69184677
:100EB000FFF70CFFBB689AB23B699A833B69FA79EA
:100EC0005A723B6918461837BD4680BD2C0E01008A
:100ED00054090100680901001C0A010040090100D1
:100EE00090B587B000AF786039607B68002B05D182
:100EF00040F2E5125649574801F0E4FA7B6818467B
:100F000001F08CFF0346022B05D04FF4F3725049D9
:100F1000514801F0D7FA3B68002B3ED003F04EFB5E
:100F2000786102F081FA0346002B09D048494B480A
:100F300001F08AF940F2E9124549494801F0C2FA44
:100F400003F03CFB386102F0CBFB0346002B09D1D8
:100F50003F49444801F078F940F2E9123C494048E1
:100F600001F0B0FA03F02AFBF86000F083FB0346BF
:100F7000002B09D036493C4801F066F940F2E912ED
:100F80003349374801F09EFAF86803F01BFB3869D3
:100F900003F018FB786903F015FB344B1B68002B3A
:100FA00004D0324B1B687A681046984703F006FB62
:100FB00004467B689B8B002B09D07B689B8B013B95
:100FC0009AB27B689A83204603F0FCFA32E03B68D1
:100FD000002B05D1204603F0F5FA6FF0010333E052
:100FE00002F07EFBB860BB6800221A637B6803F1E5
:100FF00014007B685B7A1A46B968FFF775FE3B6898
:10100000002B0BDDBB684C333A460021184603F039
:10101000DBF8BB684C33184602F07AFF204603F039
:10102000D1FA02F065F8BB681B6B002B02D0BB68DD
:101030001B6B09E00E4B1B68002B04D00C4B1B688C
:101040007A6810469847002318461C37BD4690BD65
:101050003C0E010044090100A4090100800A0100BE
:1010600040090100AC0A01001C0A0100B40700207D
:10107000B8070020B0B582B000AF78607B68002B65
:1010800005D140F25F222649264801F01BFA7B6811
:10109000184601F0C3FE0346022B05D04FF4187228
:1010A0001F49214801F00EFA204B1B68002B04D089
:1010B0001E4B1B687A6810469847002503F07EFA9D
:1010C00004467B6814331846FFF7EEFD0346002BF9
:1010D00006D17B6814331846FFF758FE012512E04D
:1010E0007B689B8B4FF6FF72934206D07B689B8B8D
:1010F00001339AB27B689A8305E0204603F062FAD6
:101100006FF0020307E0204603F05CFA012D01D1E5
:1011100001F0EEFF002318460837BD46B0BD00BF02
:101120005C0E010044090100A4090100BC07002075
:1011300080B584B000AFF860B9601346FB71FB68FE
:10114000002B05D140F2E6221049114801F0BAF90E
:10115000FB68BA680321184601F004FDFB681846D5
:10116000FFF7B4FDFB6801229A83FB6800221A6234
:10117000FB68FF229A77FB680022DA77FB6801227E
:101180005A72002318461037BD4680BD6C0E010010
:10119000E40A010080B584B000AF78600B46FB70B4
:1011A00003F00CFAF86000F065FA0346002B09D052
:1011B0001749184801F048F84FF44E721449164880
:1011C00001F080F9F86803F0FDF97968032001F077
:1011D0005DFDB860BB68002B01D1BB6813E0BB6844
:1011E0001846FFF773FDBB6801229A83BB68002293
:1011F0001A62BB68FF229A77BB680022DA77BB6865
:1012000001225A72BB6818461037BD4680BD00BF28
:101210007C0E01001C0A01004009010090B587B056
:1012200000AF7860396003F0C9F9786102F0FCF82A
:101230000346002B09D07749774801F005F84FF4B1
:1012400065727449754801F03DF903F0B7F93861EA
:1012500002F046FA0346002B09D16E49704800F0AF
:10126000F3FF4FF465726B496C4801F02BF903F002
:10127000A5F9F86000F0FEF90346002B09D0654996
:10128000684800F0E1FF4FF465726249634801F07D
:1012900019F9F86803F096F9386903F093F9786959
:1012A00003F090F97B68002B05D140F29732594941
:1012B0005D4801F007F97B68184601F0AFFD034671
:1012C000032B05D04FF466725249584801F0FAF8E2
:1012D00002F006FAB86003F071F90446544B1B683B
:1012E000002B04D0524B1B687A6810469847BB68A5
:1012F00000221A637B681B6ABA689A4210D17B6825
:10130000DB7FFF2B06D07B68DB7F0133DAB27B68A3
:10131000DA776DE0204603F055F96FF0020374E0D0
:101320007B689B8B002B1ED07B689B8B013B9AB20A
:101330007B689A837B68BA681A62BB6893F8352029
:101340007B689A777B68DB7FFF2B06D07B68DB7F2F
:101350000133DAB27B68DA774AE0204603F032F9EB
:101360006FF0020351E03B68002B09D1BB686FF0BE
:1013700001021A63204603F025F96FF0010344E0EF
:10138000BB6893F835207B681B6A93F835309A4226
:1013900007D27B68186ABB6835331A46022102F00F
:1013A0003DFB7B6803F114007B685B7A1A46B968E1
:1013B000FFF79AFC3B68002B0BDDBB684C333A46C9
:1013C0000021184602F000FFBB684C33184602F0BB
:1013D0009FFD204603F0F6F801F08AFEBB681B6B08
:1013E000002B02D0BB681B6B0FE003F0E7F804464C
:1013F000204603F0E7F80F4B1B68002B04D00D4B81
:101400001B687A6810469847002318461C37BD466B
:1014100090BD00BF8C0E0100800A01004009010050
:10142000AC0A01001C0A0100E40A0100F80A0100EC
:10143000B4070020B807002090B587B000AF7860EF
:101440007B68002B05D140F244426349634801F0B8
:1014500039F87B68184601F0E1FC0346032B05D000
:1014600040F245425C495E4801F02CF800237B6164
:1014700003F0A4F8386102F033F90346002B09D1D8
:101480005549584800F0E0FE40F24A425249564859
:1014900001F018F803F092F8F86000F0EBF803465A
:1014A000002B09D04C49514800F0CEFE40F24A4290
:1014B00049494D4801F006F8F86803F083F83869A7
:1014C00003F080F802F00CF9B86003F077F80446F6
:1014D000474B1B68002B04D0454B1B687A681046AD
:1014E00098477B681B6ABA689A4209D0BB684FF07C
:1014F000FF321A63204603F065F84FF0FF3367E0D0
:101500007B68DB7F013BDAB27B68DA777B68DB7F65
:10151000002B54D17B689A7F7B681B6A93F8353027
:101520009A4207D07B68186A7B681E331A460221EC
:1015300002F074FA7B6814331846FFF7B5FB0346D4
:10154000002B23D17B685B69143BBB607B68BA6866
:101550001A62BB6893F835207B689A777B68DB7FDB
:10156000FF2B0DD07B68DB7F0133DAB27B68DA7743
:101570007B6814331846FFF709FC01237B611EE0EA
:10158000204603F01FF86FF0020321E07B689B8B7D
:101590004FF6FF7293420CD07B689B8B01339AB25B
:1015A0007B689A837B6800221A627B68FF229A77A5
:1015B00005E0204603F006F86FF0020308E020463D
:1015C00003F000F87B69012B01D101F091FD0023AC
:1015D00018461C37BD4690BD9C0E0100E40A010070
:1015E000F80A0100AC0A0100400901001C0A0100D0
:1015F000BC07002080B582B000AF02F0DFFF78604A
:101600000A4B1B78DBB20133DAB2084B1A70084B75
:101610001B68002B02D0064B1B689847786802F0C5
:10162000D1FF00BF0837BD4680BD00BFEC060020DB
:10163000E406002080B582B000AF02F0BFFF786002
:101640000A4B1B68002B02D0084B1B689847084BBD
:101650001B78DBB2013BDAB2054B1A70786802F0F6
:10166000B1FF00BF0837BD4680BD00BFE8060020BF
:10167000EC06002080B582B000AF02F09FFF7860DA
:10168000054B1B78FB70786802F09CFFFB781846CE
:101690000837BD4680BD00BFEC06002080B584B091
:1016A00000AF7860FFF7E6FF0346002B03D00A4A3D
:1016B0007B6813600CE002F013F8F860FB68002B05
:1016C00003D1054A7B68136002E0FB687A681A63FD
:1016D0001037BD4680BD00BFF006002080B582B047
:1016E00000AFFFF7C7FF0346002B01D0074B09E00F
:1016F00001F0F6FF78607B68002B02D07B68303306
:1017000000E0024B18460837BD4680BDF0060020B9
:1017100080B489B000AFF860B9607A60FB68FB61A3
:10172000BB68DBB27B617B68032B40D9FB6803F0AD
:101730000303002B3BD1FB68BB617B691B027A6909
:1017400013433B613B691B043A6913433B6116E059
:10175000BB691A1DBA613A691A60BB691A1DBA6180
:101760003A691A60BB691A1DBA613A691A60BB69A5
:101770001A1DBA613A691A607B68103B7B607B680E
:101780000F2BE5D807E0BB691A1DBA613A691A60E8
:101790007B68043B7B607B68032BF4D8BB69FB61EF
:1017A00005E0FB695A1CFA617A69D2B21A707B684B
:1017B0005A1E7A60002BF4D1FB6818462437BD46C8
:1017C0005DF8047B704780B48BB000AFF860B960FF
:1017D0007A60FB687B62BB683B627B687B617B698C
:1017E0000F2B4DD93A6A7B6A134303F00303002B96
:1017F00046D17B6AFB613B6ABB6122E0BA69131D7B
:10180000BB61FB69191DF96112681A60BA69131D81
:10181000BB61FB69191DF96112681A60BA69131D71
:10182000BB61FB69191DF96112681A60BA69131D61
:10183000BB61FB69191DF96112681A607B69103B75
:101840007B617B690F2BD9D80AE0BA69131DBB6194
:10185000FB69191DF96112681A607B69043B7B61A1
:101860007B69032BF1D8FB697B62BB693B6207E0B4
:101870003A6A531C3B627B6A591C796212781A706F
:101880007B695A1E7A61002BF2D1FB6818462C370F
:10189000BD465DF8047B704780B487B000AFF86048
:1018A000B9607A60FB687B61BB683B613A697B69C0
:1018B0009A4226D23A697B6813447A699A4220D2C6
:1018C0007A697B6813447B613A697B6813443B61A6
:1018D00009E03B69013B3B617B69013B7B613B6903
:1018E0001A787B691A707B685A1E7A60002BF0D1D7
:1018F0000CE03A69531C3B617B69591C7961127891
:101900001A707B685A1E7A60002BF2D1FB68184669
:101910001C37BD465DF8047B704780B487B000AFCC
:10192000F860B9607A607B68002B21D0FB687B612E
:10193000BB683B613A69531C3B617B69591C796107
:1019400012781A701B78002B0CD104E07B695A1CAA
:101950007A6100221A707B68013B7B607B68002BF8
:10196000F4D105E07B68013B7B607B68002BE1D113
:10197000FB6818461C37BD465DF8047B704790B481
:1019800084B000AFF860B9607A60002413E0FB68AF
:101990001A78BB68591CB9601B78D31ADBB25CB2E9
:1019A000002C0BD1FB685A1CFA601B78002B05D069
:1019B0007B68013B7B607B68002BE8D1234618469F
:1019C0001037BD4690BC704780B485B000AF7860DA
:1019D0007B68FB6002E0FB680133FB60FB681B78FF
:1019E000002BF8D1FA687B68D31A18461437BD4625
:1019F0005DF8047B7047FFFF80B582B002AF0B48F3
:101A000000F022FC0A4800F01FFC0A4B01930A4B2D
:101A10000093002301220421084800F015FC084827
:101A200000F012FC00BFBD4680BD00BFB00E01003B
:101A3000BC0E0100040F0100100F0100E00E0100B8
:101A40001C0F010080B485B000AF786039603B683E
:101A50000A2B17D17B681B681946134BA3FB012384
:101A6000DA0813469B0013445B00CA1AFA607B68CD
:101A70001B681A460C4BA3FB0223DB081A467B6843
:101A80001A600AE07B681B6803F00F03FB607B6849
:101A90001B681B091A467B681A60FB6818461437D6
:101AA000BD465DF8047B7047CDCCCCCC90B482B001
:101AB00000AF786000240DE023469B0023445B00C8
:101AC00018467B681B68591C7A6811601B780344B0
:101AD000A3F130047B681B681B78303B092BEBD9E2
:101AE000234618460837BD4690BC7047B0B58CB049
:101AF00000AFF860B9607A603B607B6CBB623C6CA5
:101B0000BB6C03F04003002B01D06D4B00E06D4B2C
:101B10007B62BB6C03F01003002B03D0BB6C23F083
:101B20000103BB64BB6C03F00103002B01D0302325
:101B300000E0202387F82330002387F82F30BB6C88
:101B400003F00203002B1AD07B68002B06DA2D234A
:101B500087F82F307B685B427B6010E0BB6C03F042
:101B60000403002B03D02B2387F82F3007E0BB6C36
:101B700003F00803002B02D0202387F82F30002524
:101B80007B68002B19D12B465D1C07F130021344F2
:101B9000302203F8202C13E03B1D39681846FFF76C
:101BA00051FF03461A467B6A1A442B465D1C127885
:101BB00007F130010B4403F8202C7B68002BEBD19C
:101BC0007B6C9D4200DD7D647B6CE41ABB6C03F092
:101BD0001103002B15D197F82F30002B0DD0002CBE
:101BE0000BDD013C09E0FA68BB689A4202D2FB684F
:101BF00020221A70FB680133FB6023465C1E002B19
:101C0000F1DC97F82F30002B0BD0FA68BB689A42B2
:101C100003D2FB6897F82F201A70013CFB68013350
:101C2000FB60BB6C03F01003002B1AD10AE0FA68CA
:101C3000BB689A4203D2FB6897F823201A70FB68AE
:101C40000133FB6023465C1E002BF0DC09E0FA68E0
:101C5000BB689A4202D2FB6830221A70FB680133DB
:101C6000FB607B6C5A1E7A649D42F0DB0DE0FA68E3
:101C7000BB689A4206D207F130032B4413F8202C9C
:101C8000FB681A70FB680133FB602B465D1E002B5E
:101C90000DDDBB6A002BEAD109E0FA68BB689A4205
:101CA00002D2FB6820221A70FB680133FB602346D6
:101CB0005C1E002BF1DCFB6818463037BD46B0BD1A
:101CC000B80F0100CC0F010080B592B004AFF860EE
:101CD000B9607A603B60FB68BB62FA68BB6813441A
:101CE0007B627A6AFB689A4280F026824FF0FF336B
:101CF0007B627A6AFB68D31ABB601DE27B681B7843
:101D0000252B0BD0BA6A7B6A9A4203D27B681A7879
:101D1000BB6A1A70BB6A0133BB620AE20023BB775D
:101D20007B6801337B607B681B782D2B04D1BB7FE4
:101D300043F01003BB77F3E77B681B782B2B04D1B0
:101D4000BB7F43F00403BB77EAE77B681B78202B5B
:101D500004D1BB7F43F00803BB77E1E77B681B78C6
:101D6000232B04D1BB7F43F02003BB77D8E77B68EC
:101D70001B78302B04D1BB7F43F00103BB77CFE747
:101D800000BF4FF0FF33BB617B681B78303B092BF2
:101D900005D83B1D1846FFF789FEB86115E07B6842
:101DA0001B782A2B11D17B6801337B603B681A1D9D
:101DB0003A601B68BB61BB69002B06DABB695B42FA
:101DC000BB61BB7F43F01003BB774FF0FF337B61F8
:101DD0007B681B782E2B1ED17B6801337B607B6870
:101DE0001B78303B092B05D83B1D1846FFF75EFEDC
:101DF00078610BE07B681B782A2B07D17B68013365
:101E00007B603B681A1D3A601B687B617B69002B15
:101E100001DA00237B6100237B777B681B78682BCA
:101E200003D07B681B786C2B05D17B681B787B7794
:101E30007B6801337B600A23FB777B681B78252B4B
:101E400000F00881252BC0F21F81782B00F31C8144
:101E5000582BC0F21981583B202B00F2158101A2AA
:101E600052F823F071200000892000008920000032
:101E700089200000892000008920000089200000BE
:101E800089200000892000008920000089200000AE
:101E9000E91E00007F20000089200000892000004A
:101EA00089200000892000007F2000008920000098
:101EB000892000008920000089200000892000007E
:101EC0006B2000001D2000008920000089200000F8
:101ED000571F000089200000C52000008920000055
:101EE0008920000079200000BB7F03F01003002B45
:101EF00010D109E0BA6A7B6A9A4202D2BB6A2022F8
:101F00001A70BB6A0133BB62BB69013BBB61BB6931
:101F1000002BEFDC3B681A1D3A601B68FB74BA6A41
:101F20007B6A9A4202D2BB6AFA7C1A70BB6A01339E
:101F3000BB6209E0BA6A7B6A9A4202D2BB6A20227B
:101F40001A70BB6A0133BB62BB69013BBB61BB69F1
:101F5000002BEFDCEDE03B681A1D3A601B683B622A
:101F60003B6A002B01D1824B3B620023FB6202E003
:101F7000FB6A0133FB62FA6ABB699A4205D0FB6ACD
:101F80003A6A13441B78002BF2D17B69002B05DDE4
:101F9000FA6A7B699A4201DD7B69FB62BB7F03F0D1
:101FA0001003002B10D109E0BA6A7B6A9A4202D270
:101FB000BB6A20221A70BB6A0133BB62BB695A1E1E
:101FC000BA61FA6A9A42EFDB00233B6310E0BA6A17
:101FD0007B6A9A4203D23B6A1A78BB6A1A70BB6A60
:101FE0000133BB623B6A01333B623B6B01333B63B2
:101FF0003A6BFB6A9A42EADB09E0BA6A7B6A9A4268
:1020000002D2BB6A20221A70BB6A0133BB62BB6971
:102010005A1EBA61FA6A9A42EFDB8AE0BB69B3F1F1
:10202000FF3F05D10823BB61BB7F43F00103BB77B2
:102030003B681A1D3A601B681A46BB7F02937B6996
:102040000193BB6900931023796AB86AFFF74EFDCC
:10205000B8626EE0BA6A7B6A9A4202D2BB6A2522F3
:102060001A70BB6A0133BB6263E00823FB772AE086
:10207000BB7F43F04003BB771023FB7723E0BB7F9C
:1020800043F00203BB771DE0BA6A7B6A9A4202D230
:10209000BB6A25221A70BB6A0133BB627B681B785E
:1020A000002B0BD0BA6A7B6A9A4203D27B681A78FB
:1020B000BB6A1A70BB6A0133BB623AE07B68013BC2
:1020C0007B6036E000BF7B7F6C2B09D13B681A1D1B
:1020D0003A601B687B63BB7F03F00203002B1AE0AE
:1020E0007B7F682B0ED13B681A1D3A601B689BB240
:1020F0007B63BB7F03F00203002B0CD07B6B1BB216
:102100007B6308E03B681A1D3A601B687B63BB7FFA
:1021100003F00203002B7A6BF97FBB7F02937B698C
:102120000193BB6900930B46796AB86AFFF7DEFC3E
:10213000B8627B6801337B607B681B78002B7FF47F
:10214000DDADBB68002B0BD0BA6A7B6A9A4203D222
:10215000BB6A00221A7003E07B6A013B00221A70FE
:10216000BA6AFB68D31A18463837BD4680BD00BF2F
:10217000480F010080B584B000AFF860B9607A60A4
:102180007B68BA684FF0FF31F868FFF79DFD0346A2
:1021900018461037BD4680BD0EB480B585B000AF7F
:1021A000786007F12003BB60BA68F9697868FFF7C7
:1021B000E1FFF860FB6818461437BD46BDE8804073
:1021C00003B0704780B400AF034B1B681846BD4690
:1021D0005DF8047B704700BFF406002080B584B032
:1021E00000AF7860124B1B68FB607868FEF77CFAE2
:1021F000B860BA68FB689A4201D1002313E0BB685B
:10220000002B0FD00A4B1B68002B04D0084B1B6817
:102210001846FEF703FB4321B868FEF773FA044A39
:10222000BB681360FB6818461037BD4680BD00BF11
:10223000F406002080B483B000AF786000BF0C3794
:10224000BD465DF8047B70470FB480B582B000AF27
:1022500007F114033B603B683A697F211048FFF7A0
:1022600033FD03467B607B687F2B01D97F237B6036
:102270000C4B1B68002B03D10948FFF7DBFF06E07E
:10228000084B18687B68064A0021FEF759FB7B68FB
:1022900018460837BD46BDE8804004B0704700BF0F
:1022A0002C070020F406002080B500AF012203496E
:1022B0000348FEF73DFF00BF80BD00BF500F010087
:1022C0000007002080B500AF01F00AFA0346002B9A
:1022D00006D04FF0FF310448FEF7A0FF034600E0B0
:1022E0000023184680BD00BF0007002080B582B0E3
:1022F00000AF78607B68002B05D04FF4AC620849D2
:10230000084800F0DFF801F0EBF90346002B02D09B
:102310000548FFF791F800BF0837BD4680BD00BFF4
:10232000F40F0100580F01000007002080B485B0B1
:1023300000AFF860B9607A60FB68002B04D00D4BE9
:102340001B68DA69FB681A60BB68002B04D0094B74
:102350001B681A6ABB681A607B68002B04D0054BA7
:102360001B685A6A7B681A6000BF1437BD465DF867
:10237000047B70472407002080B584B000AF7860EC
:1023800039607B68033323F00303FB603B6823F071
:102390000303BB60BA68FB689A4205D840F2B652A4
:1023A0000A490B4800F08EF8BA68FB68D31A1A463F
:1023B0007968084800F028F90346074A1360FFF7D8
:1023C00073FF00BF1037BD4680BD00BFE00F0100A6
:1023D000680F0100500F01002407002080B584B071
:1023E00000AF7860FFF76EFFF8600C4B1B687968F0
:1023F000184600F08BF9B860F868FFF777FF084BD4
:102400001B68002B04D0064B1B687968B868984796
:10241000BB6818461037BD4680BD00BF24070020AA
:10242000F806002080B584B000AF786039607B6822
:102430003A6802FB03F31846FFF7D0FFF860FB6829
:10244000002B08D07B683A6802FB03F31A46002190
:10245000F868FFF75DF9FB6818461037BD4680BD88
:1024600080B584B000AF78600A4B1B68002B03D0A6
:10247000084B1B6878689847FFF724FFF860786876
:1024800000F078FAF868FFF731FF00BF1037BD465B
:1024900080BD00BFFC06002080B586B000AFF860AC
:1024A000B9607A60FFF70EFF78617A68B968F868FA
:1024B000FFF73CFF7869FFF719FF00BF1837BD46EB
:1024C00080BDFFFF80B586B000AFF860B9607A606C
:1024D0000023FB750C4B1B68002B0BD17B68BA6883
:1024E000F9680A48FFF7B0FE00BFFB7DDBB2002BA6
:1024F000FBD005E0044B1B687A68B968F868984718
:1025000000BF1837BD4680BD28070020800F01009E
:1025100080B584B000AF786039607B689B6A3A68A8
:102520009A4204D2822235493548FFF7CBFF7B68B7
:10253000DB6A3A689A4204D3832230493148FFF774
:10254000C1FF7B689A6A3B685B681344FB603A682A
:10255000FB689A4224D0FB681B6803F00103002B40
:102560001ED17B68DB6AFA689A4219D07B681B6BC4
:10257000FA689A4202D17B683A681A63FB680022C3
:102580001A60FB685A683B685A607B689B6A3A68C5
:10259000D11A7B689A6AFB685B6813440A469A60A2
:1025A0007B689A6A3B689B681344BB60BA683B6867
:1025B0009A421FD0BB681B6803F00103002B19D19E
:1025C0007B681B6B3A689A4202D17B68BA681A63CF
:1025D0003B6800221A603B685A68BB685A607B6897
:1025E0009B6ABA68D11A7B689A6A3B685B68134435
:1025F0000A469A6000BF1037BD4680BD2014010016
:10260000041001002810010080B58AB000AFF86006
:10261000B9607A60BB68033323F003037B627B6A93
:1026200038333B623B6A033323F00303FB61BA6830
:102630007B68134423F00303BB61BB69182B53D998
:10264000BB69183B3A6A9A424ED8BA69FB69D31AF9
:10265000183B7B6138220021786AFFF759F87B6AC2
:10266000FA680C21184600F07DFA7B6A254A5A6107
:102670007B6AFA699A617B6A7A69DA617B6A7A694C
:102680005A63FA697B6A9A627B6A9B6A3B617B6ADE
:1026900023F001023B691A607B6A5B6B03F10C0259
:1026A0003B695A603B6900229A607B6A9A6A3B697F
:1026B0005B681A447B6ADA627A6A7B6ADB6A42F098
:1026C00001021A607B6A5A6B7B6ADB6A0C325A60C1
:1026D0007B6A5A6B7B6ADB6A0C329A607B6A9A6A05
:1026E0007B6A1A637B6A08E0B968BA687B6813443E
:1026F0001A460548FFF7A8FD002318462837BD46AF
:1027000080BD00BF581001006010010080B588B086
:1027100000AF786039603B68002B01D1002315E1E0
:102720007B68002B05D14FF490728A498A48FFF7E5
:10273000C9FE7B68184600F071FB03460C2B05D0E0
:1027400040F2211283498548FFF7BCFE7B6818469A
:1027500000F046FB0346002B05D14FF491727D49F2
:102760007F48FFF7AFFE7B68BB613B68033323F014
:1027700003033B60BB695B6B3A689A4201D9002353
:10278000E4E03B680B2B01D80C233B60BB691A6B60
:10279000BB699B6AD31AFB61CFE0BB699A6AFB698C
:1027A00013447B617B691B6803F00103002B40F03D
:1027B000BE807B695A68FB69D31A0C3B3A689A421F
:1027C00000F2B5807B695A68FB69D31AA3F10C0249
:1027D0003B6818339A4239D3FA693B6813440C3387
:1027E0003B61BB699A6A3B691344FB60BB6923F098
:1027F0000102FB681A607B695A68FB685A60FB68D3
:10280000FA699A607B693A695A60FB685A68BB69E1
:102810005B6B0C339A4206D0BB699A6AFB685B68B3
:1028200013443A699A60BB691A6A3B68134403F11E
:102830000C02BB691A62BB695A6ABB691B6A9A427D
:102840001AD2BB691A6ABB695A6215E0BB691A6A77
:102850007B695B68B969896A7869411A5B1A1A44AD
:10286000BB691A62BB695A6ABB691B6A9A4203D286
:10287000BB691A6ABB695A62BB6943F001027B6992
:102880001A60BB691B6B7A699A4228D107E0BB6961
:102890009A6ABB691B6B5B681A44BB691A63BB69A4
:1028A0001B6B1B6803F00103002B05D0BB691A6B7F
:1028B000BB69DB6A9A42EAD1BB691A6BBB69DB6A06
:1028C0009A420CD0BB691B6B1B6803F00103002B01
:1028D00005D040F283121F492248FFF7F3FD7A69C1
:1028E0003B6813440C33BA69D26A934205D940F26B
:1028F000851218491C48FFF7E5FD7B690C3303F08E
:102900000303002B05D04FF4C37212491748FFF799
:10291000D9FD7B6903F00303002B05D040F2871239
:102920000C491348FFF7CEFD7B690C330EE0BB6901
:102930009A6AFB6913445B68FB61BB695A6B3B682D
:10294000D31AFA699A427FF628AF00231846203737
:10295000BD4680BD2C1401009C100100AC1001008C
:10296000E81001001011010060110100B011010018
:10297000FC11010080B584B000AF78607B68002B4B
:1029800000F083807B6803F00303002B05D04FF435
:10299000027240494048FFF795FD7B680C3BFB60A5
:1029A000FB681B6823F00103BB60BB68002B05D1EB
:1029B0004FF4057237493948FFF784FDFB681B68FF
:1029C00003F00103002B05D140F2152231493448B0
:1029D000FFF778FDBB68184600F020FA03460C2B81
:1029E00005D040F216222B492E48FFF76BFDBB683D
:1029F000184600F0F5F90346002B05D140F21722E6
:102A000024492948FFF75EFDBB689B6A7A689A42B1
:102A100004D3BB68DB6A7A689A4205D34FF4067226
:102A20001C492248FFF74EFDBB689A6AFB685B6849
:102A300013441B6823F001031A46BB68934205D078
:102A400040F21A2213491A48FFF73CFDBB6823F0F5
:102A50000102FB681A60BB681B6BFA689A4202D2DB
:102A6000BB68FA681A63BB681A6ABB689B6AF96834
:102A7000CB1A1946FB685B68CB1A1A44BB681A620A
:102A8000F968B868FFF744FD00E000BF1037BD46A5
:102A900080BD00BF3C1401002C120100CC120100CB
:102AA000E4120100F41201003C1301007413010050
:102AB000E813010080B483B000AF786039607B68B0
:102AC0001B683A685A607B681A683B681A607B68C2
:102AD0003A681A603B687A685A6000BF0C37BD4696
:102AE0005DF8047B704780B483B000AF78607B688A
:102AF0001B687A6852685A607B685B687A681268FB
:102B00001A607B687A685A607B685A687B681A60CA
:102B100000BF0C37BD465DF8047B704780B485B0BC
:102B200000AF0346FB710023FB600FE00C4AFB681B
:102B30001B0113441B78FA799A4204D1FB681B01EC
:102B4000074A134406E0FB680133FB60FB68082B6F
:102B5000ECDD002318461437BD465DF8047B704752
:102B60000800002090B589B000AFF8600B467A608D
:102B7000FB720023FB61FB7A1846FFF7CFFFB861B9
:102B8000BB69002B05D14FF4AB7225492548FFF7EF
:102B900099FC00F009FCBB695B68FB6112E0FB6912
:102BA0000C3B7B617B69002B09D07A69FB689A42F8
:102BB00005D14FF4B3721A491B48FFF783FCFB6938
:102BC0001B68FB61BB690433FA699A42E7D100F0E4
:102BD00001FCFB7A63F07F03DAB2FB681A72FB68D0
:102BE000082279681846FEF798FE104B1B68002BE8
:102BF00003D00E4B1B68F868984701F0DFFC0446D1
:102C0000BB691A1DFB680C3319461046FFF752FFCB
:102C1000204601F0D7FC00BF2437BD4690BD00BF61
:102C2000E01401004C14010064140100AC07002002
:102C300090B583B000AF78607B68002B05D140F27F
:102C400093120F490F48FFF73DFC0F4B1B68002BF9
:102C500003D00D4B1B68786898477B6800221A7276
:102C600001F0ACFC04467B680C331846FFF73BFFD1
:102C7000204601F0A7FC00BF0C37BD4690BD00BF49
:102C8000F014010074140100B007002090B587B063
:102C900000AF03463960FB7101F090FC7861FEF7EC
:102CA000E9FC0346002B09D029492A48FFF7CCFA52
:102CB00040F2B71226492848FFF704FC786901F072
:102CC00081FCFB791846FFF729FF38613B69002B2F
:102CD00005D140F2BB121E492048FFF7F3FB3B69C8
:102CE000DB681846FFF77AFBF860FB68002B01D120
:102CF000002329E03B69DB681A460021F868FEF7EB
:102D000007FDFB68FA791A72FB6800225A72FB68A9
:102D1000082239681846FEF700FE114B1B68002B8D
:102D200003D00F4B1B68F868984701F047FC044636
:102D30003B691A1DFB680C3319461046FFF7BAFEB3
:102D4000204601F03FFCFB6818461C37BD4690BD8D
:102D50000415010088140100B01401004C14010096
:102D6000AC07002090B583B000AF78607B68002B83
:102D700005D140F2F51216491648FFF7A3FB7B6810
:102D80001B7A5BB2002B05DA4FF4FB721049124834
:102D9000FFF798FB114B1B68002B03D00F4B1B68F0
:102DA000786898477B6800221A7201F007FC044695
:102DB0007B680C331846FFF796FE204601F002FCB4
:102DC0007868FFF74DFB00BF0C37BD4690BD00BFD4
:102DD0001815010074140100B4140100B00700209C
:102DE00080B582B000AF78607B68002B05D14FF4CE
:102DF000067208490848FFF765FB7B681B7A5BB2DF
:102E0000002B01DA012300E0002318460837BD46F5
:102E100080BD00BF2C1501007414010080B582B084
:102E200000AF78607B68002B05D140F22B22064969
:102E30000648FFF747FB7B681B7A03F07F03DBB292
:102E400018460837BD4680BD4815010074140100BE
:102E500080B586B000AF78600B46FB7000233B6105
:102E600000237B610023FB60FB781846FFF756FECA
:102E7000F8607B68002B02D0FB68002B01D1002397
:102E800035E001F09BFBB860FEF7F4FB0346002B36
:102E900009D019491948FFF7D7F940F249221649D4
:102EA0001748FFF70FFBB86801F08CFB00F07CFAC5
:102EB000FB685B687B6112E07B690C3B3B613B69B3
:102EC000082279681846FEF75AFD0346002B03D105
:102ED00000F080FA3B690AE07B691B687B61FB6854
:102EE00004337A699A42E7D100F074FA0023184655
:102EF0001837BD4680BD00BF5C1501008814010075
:102F0000B014010080B483B000AF78607B687A6849
:102F10005A607B685A687B681A6000BF0C37BD46F0
:102F20005DF8047B704780B483B000AF786039608F
:102F30007B685B683A681A607B685A683B685A60CD
:102F40007B683A685A603B687A681A6000BF0C3741
:102F5000BD465DF8047B704780B483B000AF7860F5
:102F60007B681B687A6852685A607B685B687A681D
:102F700012681A607B687A685A607B685A687B6856
:102F80001A6000BF0C37BD465DF8047B704780B403
:102F900083B000AF78607B681B687A689A420CBF88
:102FA00001230023DBB218460C37BD465DF8047BD5
:102FB0007047FFFF80B584B000AF78607B68002B5E
:102FC00004D15F221C491D48FFF77CFA7B689B6A8D
:102FD0001B78232B11D17B68DB691A467B689B6ABF
:102FE0009A420AD97B68DB691A467B689B6A194654
:102FF0007B68DB6A0B449A420CD97B6819461048FF
:10300000FFF722F901F0DAFA0346FB60FB68002BB8
:10301000FCD10DE07B68DB691A467B689B6A203334
:103020009A4205D87B6819460648FFF70DF9FFE775
:1030300000BF1037BD4680BDD41501006C150100DE
:10304000801501009C150100B0B582B000AF78601A
:10305000094B1B68184601F0B7FD0346013B1C46AF
:10306000064B53F83430A3F114057B681C602B46E3
:1030700018460837BD46B0BDC0080020C007002074
:1030800098B500AF094B00221A80002406E0E30047
:10309000074A13441846FFF735FF01341F2CF6DDAD
:1030A000044B00221A6000BF98BD00BFC408002076
:1030B000C0070020C008002090B583B000AF3B1DC2
:1030C0001846FFF7C1FF0446084B1C60204600F07D
:1030D00033F9032384F8343004F11C03184601F05B
:1030E000BAFA00BF0C37BD4690BD00BFC80800202B
:1030F00080B586B000AF01F061FAF8605C4BB3F9BF
:103100000030002B40F0AC805A4B1B68002B00F0C5
:10311000A78000233B613B1D1846FFF795FF7861B0
:10312000554B1B6893F8343003F00703032B2CD165
:10313000514B1B6893F835301A467B689A4203D28C
:103140004D4B1B687B6115E04B4B1B6893F835308A
:103150001A467B689A420BD1474B1B6893F8343070
:1031600003F00803002B03D1434B1B687B6101E094
:1031700001233B61404B1B6893F834203E4B1B6896
:1031800022F00802D2B283F834203B4B1B687A69E4
:103190009A4250D07B68DAB2384B1A70364B1B68B3
:1031A000BB60354A7B691360354B1B68002B04D02C
:1031B000334B1B687969B86898473B69002B02D08C
:1031C000B86800F063F8786900F0B6F87B6993F8A6
:1031D00034305BB223F007035BB243F003035BB20E
:1031E000DAB27B6983F834207869FFF7E3FE254B78
:1031F0001B78DBB2002B14D1234B1B68002B03D0B0
:10320000214B1B68B8689847BB681C331A467B691A
:103210001C331946104601F0D8F9F86801F0D2F9CC
:1032200022E0BB681C331A467B691C3319461046E2
:1032300001F0CBF914E0104B1B68184600F07CF845
:103240000D4B1B6893F834305BB223F007035BB27D
:1032500043F003035AB2084B1B68D2B283F8342000
:10326000F86801F0AFF900BF1837BD4680BD00BF58
:10327000C4080020C0080020C8080020CC08002096
:10328000D0080020EC060020D408002090B583B0C0
:1032900000AF78607B68002B05D140F2D222214933
:1032A0002148FFF70FF901F089F904461F4B1B680D
:1032B0007A689A420ED17B6893F834305BB223F07F
:1032C00007035BB243F003035BB2DAB27B6883F8B7
:1032D000342020E07B6893F834305BB223F007039E
:1032E0005BB243F001035BB2DAB27B6883F834204F
:1032F0007B6893F83530DB000D4A1A447B68143341
:1033000019461046FFF70FFE7B689A6B094B1B6846
:103310001343084A1360204601F054F900BF0C37EC
:10332000BD4690BDF01501006C150100C8080020D5
:10333000C0070020C008002090B583B000AF7860BF
:103340007B68002B05D140F2333213491348FFF755
:10335000B9F801F033F904467B6814331846FFF7D7
:10336000FBFD7B6893F83530DB000D4A13441846AB
:10337000FFF70DFE0346002B07D07B689B6BDA43FB
:10338000084B1B681340074A1360204601F01AF9E6
:1033900000BF0C37BD4690BD0C1601006C15010036
:1033A000C0070020C008002098B500AF01F006F962
:1033B0000446074BB3F900309BB201339BB21AB2FB
:1033C000034B1A80204601F0FDF800BF98BD00BFF6
:1033D000C408002098B500AF01F0F0F80446104B87
:1033E000B3F900309BB2013B9BB21AB20C4B1A806E
:1033F0000B4BB3F90030002B0CDC094B00221A8078
:10340000204601F0DFF8074B1B68002B05D0FFF7C3
:103410006FFE02E0204601F0D5F800BF98BD00BF66
:10342000C4080020C808002080B400AF044BB3F9E2
:1034300000309BB21846BD465DF8047B704700BF64
:10344000C408002080B483B000AF78607B687A68DD
:103450005A607B685A687B681A6000BF0C37BD46AB
:103460005DF8047B704780B483B000AF78607B6800
:103470001B687A6852685A607B685B687A68126871
:103480001A607B687A685A607B685A687B681A6041
:1034900000BF0C37BD465DF8047B704790B583B024
:1034A00000AF00F01DF9786001F088F804467868F4
:1034B000FFF742FF7B684C33184600F0E1FC7B6865
:1034C000042283F834207868FDF710FB204601F0D1
:1034D00079F8FFF70DFE00BF0C37BD4690BDFFFF2A
:1034E00090B585B000AF78607B68FB60FB68002B0F
:1034F00004D1872219491A48FEF7E4FFFB6893F8C4
:10350000343003F00703022B04D0882213491548F6
:10351000FEF7D8FFF868FFF781FC0346012B04D0C3
:1035200089220E491048FEF7CDFF01F047F8044606
:10353000FB686FF001021A63FB6814331846FFF74B
:1035400092FFF868FFF7A2FE204601F03BF8FFF774
:10355000CFFD00BF1437BD4690BD00BFC8170100A6
:10356000281601003C1601007816010080B586B0CF
:1035700002AFF860B9607A603B60FB6814331846AC
:10358000FFF760FFFB687A681A62FB683A685A6264
:10359000FB68BA699A62FB68FA69DA62FB68986A42
:1035A000FB68DB6A1A462321FEF7B2F8FB68186A4B
:1035B000FB68596AFB689A6AFB68DB6A043B1A4439
:1035C000264B01F099F80246FB68DA6197F8203043
:1035D0001F2B04D9BE2222492248FEF773FFFB6845
:1035E00097F8202083F83520FB6800229A63FB6857
:1035F0000022DA63FB68002283F84020FB687A6AC5
:103600005A64FB687A6A9A64FB6800221A63FB6852
:10361000002283F83420FB6800229A67FB680022AE
:10362000DA67FB6803F14C00F9680023019300237B
:103630000093FB680C4A00F0E5FBFB680022DA67A8
:103640000A4B1B68002B03D0084B1B68F86898478F
:10365000002318461037BD4680BD00BF9D340000D2
:10366000D8170100BC160100E1340000E00800207A
:1036700080B588B004AFF860B9607A603B60FB68E1
:10368000002B05D140F2331212491348FEF71AFFFE
:10369000BB69002B05D14FF49A720E490F48FEF713
:1036A00011FFBA680121F868FFF75CFA7B6A03939F
:1036B00097F820300293FB690193BB6900933B6844
:1036C0007A68B968F868FFF751FF03461846103763
:1036D000BD4680BDE817010028160100E016010074
:1036E00080B400AF034B1B681846BD465DF8047BF1
:1036F000704700BFC808002080B582B000AF786076
:103700007B68002B05D14FF4B3721C491C48FEF7AF
:10371000D9FE7B6893F8343003F00703002B05D003
:1037200040F2671215491748FEF7CCFE7868FFF79C
:1037300075FB0346012B05D04FF4B4720F491248B4
:10374000FEF7C0FE7B6893F835301A46012393409C
:103750001A467B689A637B68022283F83420786873
:1037600000F03EFAFFF7BCFF0346002B01D0FFF745
:10377000BFFC002318460837BD4680BDF81701007E
:1037800028160100F81601007816010080B584B0F3
:1037900000AF78607B68002B05D140F2911223497D
:1037A0002348FEF78FFE7868FFF738FB0346012BAE
:1037B00005D04FF4C9721D491E48FEF783FE786894
:1037C000FFF70EFB0346002B05D140F29312174979
:1037D0001948FEF777FE7B6893F8343003F007034F
:1037E000042B01D100231CE07B6893F8343003F0F4
:1037F0000703002B02D07868FFF79EFD00F0DEFE85
:10380000F8607B684C33184600F03AFB7B68042272
:1038100083F834207868FDF769F9F86800F0D2FE83
:10382000002318461037BD4680BD00BF0C180100AC
:1038300028160100781601003017010080B58AB003
:1038400004AFF860B9607A603B60F9680120FFF767
:103850001DFA78617B69002B01D100231BE03868D9
:10386000FEF7BCFD38613B69002B04D17869FFF796
:1038700079FA00230FE07B6A039397F820300293D4
:103880003B6801933B6900937B68BA68F968786983
:10389000FFF76CFE7B6918461837BD4680BDFFFFF9
:1038A00080B584B000AF78607B68002B05D14FF401
:1038B000FC7223492348FEF705FE7868FFF7AEFA4D
:1038C0000346012B05D040F2F9121D491E48FEF7B0
:1038D000F9FD7868FFF784FA0346002B05D04FF412
:1038E000FD7217491948FEF7EDFD7B6893F83430F7
:1038F00003F00703042B01D100231CE07B6893F83D
:10390000343003F00703002B02D07868FFF714FD72
:1039100000F054FEF8607B684C33184600F0B0FAB3
:103920007B68042283F834207868FDF7DFF8F868B4
:1039300000F048FE002318461037BD4680BD00BF8A
:1039400020180100281601007816010060170100F8
:1039500090B585B000AF7860FFF7C2FEF860FB68F5
:10396000002B05D140F241221B491C48FEF7AAFD5D
:10397000F868FFF753FA0346012B05D040F24222C4
:1039800015491748FEF79EFD00F018FE0446FB6837
:1039900000221A63F86800F0BFF8FB684C333A1D48
:1039A0000021184600F010FCFB684C33184600F06C
:1039B000AFFA204600F006FEFFF79AFBFB681B6B90
:1039C00013F1020F02D1FB6800221A63FB681B6B24
:1039D00018461437BD4690BD341801002816010062
:1039E0007816010080B582B000AF78607868FFF784
:1039F000AFFF034618460837BD4680BD80B584B08A
:103A000000AF78607868FCF72DFDF860F868FFF784
:103A10009FFF034618461037BD4680BD90B587B05E
:103A200000AFF860B9607A60FB68002B05D140F206
:103A3000D72236493648FEF745FDF868FFF7EEF91C
:103A40000346012B05D04FF4367230493148FEF75A
:103A500039FDBB68022B09D0BB68022B4FDCBB6869
:103A6000002B34D0BB68012B36D048E000F0A6FD17
:103A70000446FB6893F8343003F00703012B14D19C
:103A8000F868FFF759FC7B681A78FB6883F83520E3
:103A9000FB6893F835301A46012393401A46FB68B9
:103AA0009A63F868FFF7F2FB0DE07B681A78FB6811
:103AB00083F83520FB6893F835301A46012393408C
:103AC0001A46FB689A63204600F07CFD18E0F8680F
:103AD000FFF712FE034614E0F868FFF781F903468A
:103AE000012B04D1F868FFF751FE786103E0F86814
:103AF000FFF7D6FE7861FFF7FBFA7B6901E000BFB4
:103B0000002318461C37BD4690BD00BF4418010075
:103B1000281601007816010090B583B000AF7860D8
:103B20007B68002B05D140F24D3228492848FEF72A
:103B3000C9FC7868FFF772F90346012B05D040F203
:103B40004E3222492348FEF7BDFCFFF7C9FD02466D
:103B50007B68934205D040F24F321C491E48FEF765
:103B6000B1FC7B6893F8343003F00704012C04D0D7
:103B7000032C02D04FF0FF3324E000F01FFD044679
:103B80007868FFF7D9FB7B6893F834305BB223F099
:103B900007035BB243F002035BB2DAB27B6883F8DF
:103BA00034207B684C33184600F0C4FA204600F0FD
:103BB00009FD0A4B1B68002B03D0084B1B68786873
:103BC0009847002318460C37BD4690BD5818010091
:103BD0002816010078160100AC170100D808002053
:103BE00090B583B000AF78607B68002B05D140F2C0
:103BF0007B321D491D48FEF765FC7868FFF70EF91A
:103C00000346012B05D04FF45F7217491848FEF7A1
:103C100059FC7B6893F8343003F00703022B02D081
:103C20004FF0FF331BE000F0C9FC04467B681433FF
:103C30001846FFF718FC7B684C33184600F07AFAF8
:103C40007868FFF723FB204600F0BCFC094B1B689B
:103C5000002B03D0074B1B68786898470023184651
:103C60000C37BD4690BD00BF6C180100281601003E
:103C700078160100DC08002080B483B000AF7860C3
:103C80007B687A685A607B685A687B681A6000BFF4
:103C90000C37BD465DF8047B704780B483B000AF3D
:103CA000786039607B681B683A685A607B681A687C
:103CB0003B681A607B683A681A603B687A685A60A9
:103CC00000BF0C37BD465DF8047B704780B483B0FD
:103CD00000AF78607B681B687A6852685A607B68BE
:103CE0005B687A6812681A607B687A685A607B68D9
:103CF0005A687B681A6000BF0C37BD465DF8047BCC
:103D0000704780B483B000AF78607B681B687A68C6
:103D10009A420CBF01230023DBB218460C37BD4684
:103D20005DF8047B704780B586B000AFF860B9607D
:103D30007A603B60FB6897F820205A72FB685B7AD8
:103D400023F00103DAB2FB685A72FB68BA68DA61E1
:103D5000FB687A681A62FB6800229A62FB683A681C
:103D60005A6200237B610BE07B690233DB00FA6857
:103D7000134404331846FFF77FFF7B6901337B61EF
:103D80007B69002BF0DD00BF00BF1837BD4680BD4A
:103D900090B585B000AF78604FF0FF33FB6000F066
:103DA0000DFC04467868FFF7ACFF0346002B06D1F4
:103DB0007B681B68143BBB60BB689B6AFB6020464A
:103DC00000F000FCFB6818461437BD4690BD80B576
:103DD00084B000AF78600023FB600BE0FB68023327
:103DE000DB007A68134404331846FFF76FFFFB6863
:103DF0000133FB60FB68002BF0DD00BF00BF103714
:103E0000BD4680BD80B586B002AFF860B9607A600B
:103E10003B60FB68002B05D14FF4847214491548B0
:103E2000FEF750FB7B68002B05D140F209121049C8
:103E30001148FEF747FBBB696FF00042934205D380
:103E40004FF485720A490D48FEF73CFBFB68BA68DF
:103E50000A211846FEF786FE3B7F0093BB693A684D
:103E60007968F868FFF75FFF00BF1037BD4680BD77
:103E7000681901008018010094180100A8180100B9
:103E800090B583B000AF78607B68002B05D140F21D
:103E90001F121B491B48FEF715FB7B681846FEF7EF
:103EA000BDFF03460A2B05D04FF490721449164803
:103EB000FEF708FB7B681846FEF792FF0346002BCF
:103EC00005D140F221120E491048FEF7FBFA00F02E
:103ED00075FB04467868FFF77AFF7B685B7A23F00E
:103EE0000103DAB27B685A72204600F06BFB7B68F4
:103EF0001846FEF79DFE002318460C37BD4690BDC0
:103F00007819010080180100C0180100FC18010098
:103F1000B0B588B000AF78607B68002B05D140F267
:103F200091127B497B48FEF7CDFA7B681846FEF775
:103F300075FF03460A2B05D04FF4C97274497648C1
:103F4000FEF7C0FA002400F039FB05467868FFF759
:103F50003EFF7B685B7A23F00103DAB27B685A721A
:103F60006E4B1B68002B04D06C4B1B687A681046A4
:103F70009847FCF72DFA02467B685B6A1A447B6817
:103F80009A627B685B7A03F00403002B02D0644BD7
:103F9000BB6101E0634BBB61BB69BB600023FB619C
:103FA00055E0FB699B0007F12002134453F8183CCD
:103FB0001B683B61FB69DB0014335B423A691344C5
:103FC000FB60FB689A6A7B689B6A9A4209D0FB682F
:103FD0009A6A7B689B6AD31A6FF0004293421FD3A0
:103FE00000E000BFFB699B0007F12002134453F877
:103FF000183C1A68FB699B0007F120010B4443F849
:10400000182CFB699B0007F12002134453F8182C6D
:10401000FB69DB00B9690B445B689A42C1D100E0DF
:1040200000BFFB69002B0FD0FB699B0007F120024A
:10403000134453F8182CFB69013308329B0007F135
:1040400020010B4443F8182CFB690133FB61FB6929
:10405000002BD6D0344B1B680133334A1360324BEC
:104060001B687B61BA687B68143319461046FFF7FA
:1040700014FE0223FB611EE07B6903F00303002BA7
:104080001DD1FB69C3F101039B0007F1200213441A
:1040900053F8180CFB69C3F101030233DB007A68A3
:1040A000134404331946FFF7F8FD7B699B087B61D5
:1040B000FB690133FB61FB69012BDDD900E000BF27
:1040C0007B685B7A43F00103DAB27B685A727B68E3
:1040D0005B7A03F00403002B0ED0144B1B78012BEA
:1040E0000AD1134B93F8343003F00703022B03D1AA
:1040F0000F48FFF775FD0124284600F063FA002CF5
:1041000001D0FEF7F5FF002318462037BD46B0BDAD
:104110008819010080180100C0180100B8070020AC
:10412000EC080020E40800207C0B00209800002010
:10413000F408002090B583B000AF78607B68002B56
:1041400005D140F209221C491C48FEF7BBF97B68E7
:104150001846FEF763FE03460A2B05D040F20A22FA
:1041600015491748FEF7AEF97B685B7A03F0010347
:10417000002B02D14FF0FF3319E0124B1B68002BCC
:1041800004D0104B1B687A681046984700F016FA66
:1041900004467868FFF71BFE7B685B7A23F0010317
:1041A000DAB27B685A72204600F00CFA00231846F7
:1041B0000C37BD4690BD00BF981901008018010062
:1041C000C0180100BC07002090B585B000AFF860B2
:1041D000B9607A60FB68002B05D140F22D222E4990
:1041E0002E48FEF76FF9FB681846FEF717FE0346E8
:1041F0000A2B05D040F22E2227492948FEF762F902
:1042000000F0DCF90446BB68052B3BD801A252F84C
:1042100023F000BF374200002D4200004142000061
:1042200051420000614200007B420000FB685A6A74
:104230007B681A6027E07B681A68FB685A6222E094
:10424000FB685B7A23F00203DAB2FB685A721AE069
:10425000FB685B7A43F00203DAB2FB685A7212E041
:10426000FB685B7A03F00103002B03D07B6801221B
:104270001A6002E07B6800221A60FB689A6A7B6819
:104280001A6000E000BF204600F09CF900231846A9
:104290001437BD4690BD00BFA81901008018010069
:1042A000C018010090B585B000AF3B461846FFF737
:1042B000E3FCFCF78DF8F86000F080F904465FE05D
:1042C000374B1B68143BBB60BB689B6AFA68D31A08
:1042D0006FF0004293425AD2324B1B68002B03D03E
:1042E000304B1B68B8689847B868FFF770FDBB682B
:1042F0005B7A03F00203002B06D1BB685B7A23F0E4
:104300000103DAB2BB685A72BB6803F114023B4680
:1043100011461846FFF7C1FCBB68DB69BA68126A30
:1043200010469847FCF754F8F8601F4B1B68002BA9
:1043300003D01D4B1B68B86898473B461846FFF7EB
:10434000E0FC0346002B00D01AE0BB68143318468B
:10435000FFF7BCFCBB685B7A03F00203002B0FD0B5
:10436000BB685B7A03F00103002B09D0BB685B7A62
:1043700023F00103DAB2BB685A72B868FFF7C8FDD0
:104380000748FFF7BEFC0346002B99D000E000BFB2
:10439000204600F017F900BF1437BD4690BD00BF9E
:1043A000E4080020740B0020780B002090B585B045
:1043B00000AF3B461846FFF75FFC00F0FFF80446ED
:1043C0006BE03D4B1B68143BFB60FCF701F8B860E9
:1043D000FB689B6ABA68D31A6FF00042934263D2BB
:1043E000364B1B68002B03D0344B1B68F86898478A
:1043F000F868FFF7ECFCFB685B7A03F00203002B24
:1044000006D1FB685B7A23F00103DAB2FB685A72CB
:10441000FB6803F114023B4611461846FFF73DFCCA
:10442000274B00221A70204600F0CCF8FB68DB69AD
:10443000FA68126A10469847224B1B68002B03D07B
:10444000204B1B68F868984700F0B8F804461C4BEE
:1044500001221A703B461846FFF753FC0346002B17
:1044600000D01AE0FB6814331846FFF72FFCFB68F6
:104470005B7A03F00203002B0FD0FB685B7A03F03A
:104480000103002B09D0FB685B7A23F00103DAB249
:10449000FB685A72F868FFF73BFD0748FFF731FCED
:1044A0000346002B8DD000E000BF204600F08AF8C4
:1044B00000BF1437BD4690BDEC080020740B0020EF
:1044C00098000020780B002080B584B000AF7860A1
:1044D0001248FFF75DFCF860FB68B3F1FF3F08D1BD
:1044E000FFF7FEF803461846FFF716FBFEF700FE3F
:1044F00010E0FBF76DFFB860FA68BB68D31A6FF085
:104500000042934206D2FA68BB68D31AFB60F8688F
:10451000FFF768FAFFF74AFFDAE700BFEC08002070
:1045200080B582B000AF00237B6009E07B68DB00D0
:10453000074A13441846FFF79FFB7B6801337B60F3
:104540007B68002BF2D000BF00BF0837BD4680BD9E
:10455000E408002080B586B004AF00237B6009E04A
:104560007B68DB00104A13441846FFF785FB7B6825
:1045700001337B607B68002BF2D00A230393042372
:1045800002934FF400730193084B00930023084AF1
:1045900008490948FFF76CF80748FFF7ADF800BF76
:1045A0000837BD4680BD00BFEC080020740900201C
:1045B000C944000060190100F4080020EFF31080E6
:1045C00072B6704780F310887047444A1368012B15
:1045D00004D04FF001031360414A1060414A11605A
:1045E00041484FF0805101607047EFF3108272B67E
:1045F0003A48016851B34FF0000101603848016842
:1046000091B1EFF309811EF0100F08BF21ED108B5F
:1046100021E9F00F4FF000041EF0100F08BF012435
:1046200041F8044D006801602E490968096808C90D
:10463000B1E8F00F002B18BFB1EC108B81F30988A3
:104640004EF0100E002B18BF2EF0100E82F31088C3
:104650004EF0040E704723490860EFF3148222F0F5
:10466000040282F314881E494FF0000008601B49C1
:104670004FF0010008601D481D49D0F8002041EAB4
:104680000201016018484FF080510160194800682C
:10469000006800BF80F3088861B662B6704700BF4B
:1046A000EFF308801EF0040F01D0EFF3098020E93A
:1046B000F00F40F804ED40F804ED1EF0040F02D0B6
:1046C00080F3098801E080F3088800B500F0BAF9AA
:1046D0005DF804EB4EF0040E70470000880B0020DC
:1046E000800B0020840B002004ED00E020ED00E0B2
:1046F0000000FFFF08ED00E080B489B000AFF86073
:10470000B9607A603B607B680433BB61BB6923F0AE
:104710000703BB61BB69443BBB61BB697B61002391
:10472000FB6108E0FB699B007A691344154A1A6033
:10473000FB690133FB61FB69102BF3D9BA687B6914
:104740005A627B6900229A627B690022DA627B6985
:1047500000221A637B6900225A633A687B699A6374
:10476000FA687B69DA637B694FF080721A647B694F
:1047700000221A60BB6918462437BD465DF8047BE9
:10478000704700BFEFBEADDE80B500AF2548FDF736
:104790005BFD254B1B889BB219462448FDF754FD51
:1047A000214B1B889BB203F00103002B02D0204851
:1047B000FDF74AFD1C4B1B889BB203F00203002B44
:1047C00002D01C48FDF740FD174B1B889BB203F03D
:1047D0000403002B02D01848FDF736FD124B1B884E
:1047E0009BB203F00803002B02D01448FDF72CFD08
:1047F0000D4B1B889BB203F48073002B02D0104832
:10480000FDF722FD084B1B889BB203F40073002BBD
:1048100002D00C48FDF718FD0B48FDF715FD00BF51
:1048200080BD00BFBC1901002AED00E0CC190100D9
:10483000E4190100F0190100FC190100041A01003B
:104840000C1A0100181A0100241A010080B500AFEB
:104850002648FDF7F9FC264B1B78DBB219462548A4
:10486000FDF7F2FC224B1B78DBB203F00103002BB7
:1048700002D02148FDF7E8FC1D4B1B78DBB203F0AA
:104880000203002B02D01D48FDF7DEFC184B1B78FD
:10489000DBB203F00403002B02D01948FDF7D4FC6F
:1048A000134B1B78DBB203F00803002B02D0154832
:1048B000FDF7CAFC0E4B1B78DBB203F01003002B94
:1048C00002D01148FDF7C0FC094B1B78DBB25BB28C
:1048D000002B06DA0D4B1B6819460D48FDF7B4FC9A
:1048E00002E00C48FDF7B0FC00BF80BD281A0100B3
:1048F00029ED00E0341A01004C1A0100581A010099
:10490000641A0100741A0100801A010038ED00E0F9
:10491000881A0100241A010080B500AF2148FDF774
:1049200093FC214B1B78DBB219462048FDF78CFC29
:104930001D4B1B78DBB203F00103002B02D01C4897
:10494000FDF782FC184B1B78DBB203F00203002B4F
:1049500002D01848FDF778FC134B1B78DBB203F04C
:104960000803002B02D01448FDF76EFC0E4B1B7899
:10497000DBB203F01003002B02D01048FDF764FCFB
:10498000094B1B78DBB25BB2002B06DA0C4B1B68C1
:1049900019460C48FDF758FC02E00B48FDF754FCA3
:1049A00000BF80BD981A010028ED00E0AC1A01009C
:1049B000C41A0100D01A0100DC1A0100E81A010033
:1049C00034ED00E0F41A0100241A010080B500AFB4
:1049D000164B1B6803F00203002B02D01448FDF7AE
:1049E00033FC124B1B6803F08043002B14D0114B97
:1049F0001B78DBB2002B01D0FFF728FF0E4B1B7892
:104A0000DBB2002B01D0FFF787FF0C4B1B889BB25A
:104A1000002B01D0FFF7B8FE044B1B68002B02DA15
:104A20000748FDF711FC00BF80BD00BF2CED00E082
:104A3000041B010029ED00E028ED00E02AED00E074
:104A40001C1B010080B586B000AF78607B682833FE
:104A50007B617B6804333B61474B1B68002B07D0AD
:104A6000454B1B6878699847F860FB68002B7ED03F
:104A70003B691B6C19464148FDF7E6FB3B695B6AE5
:104A800019463F48FDF7E0FB3B699B6A19463D48E4
:104A9000FDF7DAFB3B69DB6A19463B48FDF7D4FBBF
:104AA0003B691B6B19463948FDF7CEFB3B695B68D8
:104AB00019463748FDF7C8FB3B699B6819463548DE
:104AC000FDF7C2FB3B69DB6819463348FDF7BCFBC9
:104AD0003B691B6919463148FDF7B6FB3B695B69C9
:104AE00019462F48FDF7B0FB3B699B6919462D48D5
:104AF000FDF7AAFB3B69DB6919462B48FDF7A4FBD0
:104B00003B691B6A19462948FDF79EFB3B695B6BB5
:104B100019462748FDF798FB3B699B6B19462548CA
:104B2000FDF792FB3B69DB6B19462348FDF78CFBD5
:104B30007B681B6803F00403002B09D0FEF7D0FD4F
:104B4000034619461D48FDF77FFB00F03DF902E0E2
:104B50001B48FDF779FB7B681B6803F01003002BF3
:104B600002D11848FDF770FBFFF730FFFEE700BFEA
:104B70001837BD4680BD00BF8C0B00202C1B0100E8
:104B80003C1B01004C1B01005C1B01006C1B010065
:104B90007C1B01008C1B01009C1B0100AC1B010055
:104BA000BC1B0100CC1B0100DC1B0100EC1B010045
:104BB000FC1B01000C1C01001C1C01002C1C010032
:104BC0004C1C0100681C010080B483B000AF786009
:104BD0007B6893FAA3F3B3FA83F37A68002A01D1CE
:104BE0004FF0FF33013318460C37BD465DF8047BA8
:104BF000704780B500AFFCF771FD0346184680BDD5
:104C000080B483B000AF78607B681B687A689A4292
:104C10000CBF01230023DBB218460C37BD465DF8FC
:104C2000047B704780B485B000AF78600023FB60E0
:104C30007B68BB6005E0BB681B68BB60FB68013339
:104C4000FB60BB681B687A689A42F4D1FB6818461F
:104C50001437BD465DF8047B7047FFFF80B500AF99
:104C60000248FDF7F1FA0023184680BD8C1C0100B4
:104C700080B500AF0248FDF7E7FA0023184680BD73
:104C8000A01C010080B500AFFCF7B6FE002318465B
:104C900080BDFFFF80B582B000AF786002E00648BB
:104CA000FDF7D2FA7B685A1E7A60002BF7D100BF5D
:104CB00000BF0837BD4680BDA81C010080B586B086
:104CC00000AFF8607A603B600B46FB72FB7A1846D7
:104CD000FDF724FF78617B6904333B61FB683A6927
:104CE0001A60FB68FA7A1A72FB687A685A60FB6885
:104CF0003A68DA60FB6800221A6100BF1837BD46C7
:104D000080BD80B58AB000AF7860396000237B62D7
:104D10003B6800221A613B68DB68002B03D03B68CC
:104D20001B7A002B01D100234AE03B681B687B61A2
:104D30007B68002B04D17B693B6201237B6201E02D
:104D40007B683B62FFF73AFC03463B617B6A002BC2
:104D500010D13B6A0C3BFB60FB681B7A23F080039D
:104D60003A68127A934205D03B691846FFF72AFC4D
:104D7000002325E00023BB613B685B68FB613B6A65
:104D80001B683B623A6A7B699A4202D100233B620C
:104D90000EE0BB690133BB61FB691A1DFA613A6A17
:104DA0001A603B68DB68BA699A4200D0E7E700BF47
:104DB0003B691846FFF706FC3B68BA691A613B6A13
:104DC00018462837BD4680BD90B5B9B002AF002364
:104DD000C7F8D430744BC7F8C83007F1800207F128
:104DE000A00008230121FFF769FF0823C7F8C4309A
:104DF000D7F8C820D7F8C4106C48FDF725FAD7F8C3
:104E0000C400FFF747FF6A48FDF71EFA07F1A00349
:104E10001946D7F8D400FFF774FFC7F8D400002371
:104E2000C7F8D030AFE0D7F8D0309B0007F1D802F8
:104E3000134453F8583C0C3BC7F8C030FFF7BEFB97
:104E40000346C7F8BC30D7F8C0301B7A23F0800384
:104E500097F8A820934205D0D7F8BC301846FFF742
:104E6000B1FB8BE03B468022D7F8C0101846FCF718
:104E7000AAFCD7F8BC301846FFF7A4FBD7F8C0301F
:104E8000C7F8B830D7F8B820D7F8B83093F835302D
:104E9000009313460822D7F8C4104648FDF7D4F90A
:104EA000D7F8B83093F8343003F0070387F8B730F9
:104EB00097F8B730012B03D13F48FDF7C5F91EE045
:104EC00097F8B730022B03D13C48FDF7BDF916E047
:104ED00097F8B730002B03D13948FDF7B5F90EE04C
:104EE00097F8B730042B03D13648FDF7ADF906E04B
:104EF00097F8B730032B02D13348FDF7A5F9D7F85F
:104F0000B8309B6AC7F8CC3004E0D7F8CC30013316
:104F1000C7F8CC30D7F8CC301B78232BF5D0D7F896
:104F2000B830DA6AD7F8B8309B6A1946D7F8B83083
:104F3000DB69CB1AD118D7F8B830D86AD7F8B830AF
:104F4000DA6AD7F8B8309B6A1C46D7F8CC30E31A37
:104F50001344642203FB02F2D7F8B830DB6AB2FBD9
:104F6000F3F4D7F8B8309B6CD7F8B820126B0192E5
:104F70000093234602461548FDF766F9D7F8D0306E
:104F80000133C7F8D030D7F8B030D7F8D0209A42E4
:104F9000FFF649AFD7F8D430002B7FF437AF0023AA
:104FA0001846DC37BD4690BDAC1C0100B41C0100A6
:104FB000F81C0100381D0100441D0100501D0100B6
:104FC0005C1D0100681D0100741D0100801D0100B1
:104FD00080B584B000AF78607B681B68FB6013E02D
:104FE000FB68143BBB60BB681A4608210B48FDF701
:104FF0002BF9FB681B687A689A4202D00848FDF7D3
:1050000023F9FB681B68FB60FA687B689A42E7D16A
:1050100000BF00BF1037BD4680BD00BFA81D010006
:10502000B01D0100B0B596B002AF0023FB64424B47
:105030007B643A4607F1200008230221FFF73EFE79
:1050400008233B647A6C396C3C48FDF7FDF8386CFA
:10505000FFF720FE3A48FDF7F7F807F1200319465D
:10506000F86CFFF74EFEF8640023BB6457E0BB6C9E
:105070009B0007F15002134453F8503C0C3BFB6378
:10508000FFF79CFA0346BB63FB6B1B7A23F080039C
:1050900097F82820934204D0BB6B1846FFF792FA8A
:1050A0003AE0BB6B1846FFF78DFAFB6B7B637B6BBB
:1050B00014331846FFF7A4FD0346002B1AD17C6B6E
:1050C0007B6B9B8B1D467B6B14331846FFF7AAFD49
:1050D00003460193009523460822396C1948FDF7D1
:1050E000B3F87B6B14331846FFF772FF1648FDF7D1
:1050F000ABF811E07C6B7B6B9B8B1D467B6B143399
:105100001846FFF78FFD03460193009523460822BA
:10511000396C0E48FDF798F8BB6C0133BB643B6BF0
:10512000BA6C9A42A3DBFB6C002B96D10023184685
:105130005037BD46B0BD00BFB41D0100C01D010009
:10514000DC1D0100F41D0100041E0100081E010009
:10515000B0B596B002AF0023FB643D4B7B643A468A
:1051600007F1200008230421FFF7A8FD08233B6472
:105170007A6C396C3748FDF767F8386CFFF78AFDB1
:105180003548FDF761F807F120031946F86CFFF781
:10519000B8FDF8640023BB644EE0BB6C9B0007F1D4
:1051A0005002134453F8503C0C3BFB63FFF706FAE4
:1051B0000346BB63FB6B1B7A23F0800397F8282020
:1051C000934204D0BB6B1846FFF7FCF931E0BB6B90
:1051D0001846FFF7F7F9FB6B7B637B6B14331846BC
:1051E000FFF70EFD0346002B19D17D6B7B6BDC694D
:1051F0007B6B14331846FFF715FD034601930094AB
:105200002B460822396C1548FDF71EF87B6B1433CA
:105210001846FFF7DDFE1248FDF716F809E07A6B35
:105220007B6BDB69009313460822396C0D48FDF750
:105230000BF8BB6C0133BB643B6BBA6C9A42ACDBC2
:10524000FB6C002B9FD1002318465037BD46B0BDE4
:10525000181E0100201E0100441E0100641E0100F2
:10526000041E01007C1E0100F0B599B004AF0023BC
:10527000FB64334B7B643A4607F12000082303218B
:10528000FFF71CFD08233B647A6C396C2D48FCF752
:10529000DBFF386CFFF7FEFC2B48FCF7D5FF07F16E
:1052A00020031946F86CFFF72CFDF8640023BB645B
:1052B0003AE0BB6C9B0007F15002134453F8503C9A
:1052C0000C3BFB63FFF77AF90346BB63FB6B1B7A6E
:1052D00023F0800397F82820934204D0BB6B184634
:1052E000FFF770F91DE0BB6B1846FFF76BF9FB6B1E
:1052F0007B637C6B7B6B1B6A1D467B6BDB7F1E4677
:105300007B6B14331846FFF78DFC0346039302961C
:1053100001950823009323460822396C0B48FCF7BB
:1053200093FFBB6C0133BB643B6BBA6C9A42C0DB2E
:10533000FB6C002BB3D1002318465437BD46F0BD9B
:10534000901E0100981E0100BC1E0100DC1E010021
:10535000F0B599B004AF0023FB64464B7B643A463A
:1053600007F1200008230521FFF7A8FC08233B6470
:105370007A6C396C4048FCF767FF386CFFF78AFCA1
:105380003E48FCF761FF07F120031946F86CFFF770
:10539000B8FCF8640023BB645FE0BB6C9B0007F1C2
:1053A0005002134453F8503C0C3BFB63FFF706F9E3
:1053B0000346BB63FB6B1B7A23F0800397F828201E
:1053C000934204D0BB6B1846FFF7FCF842E0BB6B7E
:1053D0001846FFF7F7F8FB6B7B637B6B14331846BB
:1053E000FFF70EFC0346002B1ED17C6B7B6B5B8CA6
:1053F0001D467B6B1B8C1E467B6B14331846FFF7D8
:1054000011FC034602930196009523460822396C4D
:105410001B48FCF719FF7B6B14331846FFF7D8FDC8
:105420001848FCF711FF15E07C6B7B6B5B8C1D460D
:105430007B6B1B8C1E467B6B14331846FFF7F2FB0D
:10544000034602930196009523460822396C0E48C4
:10545000FCF7FAFEBB6C0133BB643B6BBA6C9A423F
:105460009BDBFB6C002B8ED1002318465437BD46C6
:10547000F0BD00BFF41E0100FC1E0100201F010052
:105480003C1F0100041E0100541F0100B0B596B07E
:1054900002AF0023FB64424B7B643A4607F12000D5
:1054A00008230621FFF70AFC08233B647A6C396C59
:1054B0003C48FCF7C9FE386CFFF7ECFB3A48FCF7B8
:1054C000C3FE07F120031946F86CFFF71AFCF864D5
:1054D0000023BB6457E0BB6C9B0007F150021344F0
:1054E00053F8503C0C3BFB63FFF768F80346BB6383
:1054F000FB6B1B7A23F0800397F82820934204D09B
:10550000BB6B1846FFF75EF83AE0BB6B1846FFF737
:1055100059F8FB6B7B637B6B14331846FFF770FB0A
:105520000346002B1AD17C6B7B6B9B8C1D467B6BDF
:1055300014331846FFF776FB034601930095234684
:105540000822396C1948FCF77FFE7B6B1433184630
:10555000FFF73EFD1648FCF777FE11E07C6B7B6B96
:105560009B8C1D467B6B14331846FFF75BFB034691
:105570000193009523460822396C0E48FCF764FE1F
:10558000BB6C0133BB643B6BBA6C9A42A3DBFB6C14
:10559000002B96D1002318465037BD46B0BD00BF42
:1055A0006C1F0100781F0100941F0100AC1F010057
:1055B000041E0100C01F010080B596B002AF002399
:1055C000FB643E4B7B643A4607F1200008230A2126
:1055D000FFF774FB08233B647A6C396C3848FCF79E
:1055E00033FE386CFFF756FB3648FCF72DFE07F10B
:1055F00020031946F86CFFF784FBF8640023BB64B2
:1056000049E0BB6C9B0007F15002134453F8503C37
:105610000C3BFB63FEF7D2FF0346BB63FB6B1B7ABD
:1056200023F0800397F82820934204D0BB6B1846E0
:10563000FEF7C8FF2CE0BB6B1846FEF7C3FFFB6B01
:105640007B63796B7B6B5B6A7A6B926A01920093E6
:105650000B460822396C1C48FCF7F6FD7B6B5B7A25
:1056600003F00103002B03D01848FCF7EDFD02E026
:105670001748FCF7E9FD7B6B5B7A03F00203002B14
:1056800003D01448FCF7E0FD02E01348FCF7DCFD12
:10569000BB6C0133BB643B6BBA6C9A42B1DBFB6CF5
:1056A000002BA4D1FAF794FE034619460B48FCF7E9
:1056B000CBFD002318465037BD4680BDD41F0100E6
:1056C000DC1F0100102001004020010058200100D3
:1056D0006820010078200100842001009020010052
:1056E00080B596B002AF0023FB64334B7B643A462F
:1056F00007F1200008230921FFF7E0FA08233B64A3
:105700007A6C396C2D48FCF79FFD386CFFF7C2FAB4
:105710002B48FCF799FD07F120031946F86CFFF7B9
:10572000F0FAF8640023BB6439E0BB6C9B0007F11E
:105730005002134453F8503C0C3BFB63FEF73EFF12
:105740000346BB63FB6B1B7A23F0800397F828208A
:10575000934204D0BB6B1846FEF734FF1CE0BB6BD2
:105760001846FEF72FFFFB6B7B63796B7B6B1B7D12
:10577000182B06D87B6B1B7D1A46124B53F8223030
:1057800000E0114B7A6B927E019200930B46082247
:10579000396C0E48FCF758FDBB6C0133BB643B6BA6
:1057A000BA6C9A42C1DBFB6C002BB4D100231846C3
:1057B0005037BD4680BD00BF0C22010014220100FD
:1057C0003C22010054240100042201006022010057
:1057D00080B582B000AF1448FCF736FD134B1B6850
:1057E0007B6016E07B681B680222114918460AF0AC
:1057F000D3F80346002B08D07B6819687B685B6888
:105800001A460C48FCF720FD00E000BF7B680C3313
:105810007B60094B1B687A689A42E3D300231846E1
:105820000837BD4680BD00BF74220100900B0020E8
:10583000882201008C220100940B002080B584B0E6
:1058400000AF786039600F48FCF7FEFC0E4B1B6818
:10585000FB600AE0FB681968FB685B681A460B4846
:10586000FCF7F2FCFB680C33FB60094B1B68FA6821
:105870009A42EFD30748FCF7E7FC0023184610379D
:10588000BD4680BDB8240100900B0020D424010047
:10589000940B0020E024010080B582B000AF786056
:1058A0003960FFF791FA002318460837BD4680BDDE
:1058B00080B586B000AF7860396000237B6100233B
:1058C0003B610023FB6007F10C0207F1100107F1B7
:1058D00014031846FCF7E0FD7B6919460848FCF7FD
:1058E000B3FC3B6919460748FCF7AEFCFB68194658
:1058F0000548FCF7A9FC002318461837BD4680BDB3
:10590000E4240100F42401000425010080B588B0DE
:1059100000AFF860B9607A60FB68FB610023BB618F
:1059200000237B6194E0FB6900221A70FB6901335C
:10593000FB61BB690133BB61FB691B78202B03D082
:10594000FB691B78092B03D1BA69BB689A42EAD379
:105950007B69092B19D94648FCF776FC00233B618B
:105960000BE03B699B007A6813441B681946414869
:10597000FCF76AFC3B6901333B613A697B699A42F7
:10598000EFD33D48FCF760FC6DE0BA69BB689A4212
:1059900064D2FB691B78222B3AD1FB690133FB618E
:1059A000BB690133BB617B699B007A681344FA6968
:1059B0001A607B6901337B6114E0FB691B785C2B07
:1059C0000AD1FB6901331B78222B05D1FB69013316
:1059D000FB61BB690133BB61FB690133FB61BB69DF
:1059E0000133BB61FB691B78222B03D0BA69BB680A
:1059F0009A42E2D3BA69BB689A4231D2FB6900226B
:105A00001A70FB690133FB61BB690133BB611FE0A5
:105A10007B699B007A681344FA691A607B690133D9
:105A20007B6105E0FB690133FB61BB690133BB614D
:105A3000FB691B78202B07D0FB691B78092B03D04F
:105A4000BA69BB689A42EDD3BA69BB689A4209D277
:105A5000BA69BB689A42FFF46FAF04E000BF02E08E
:105A600000BF00E000BF7B6918462037BD4680BDFF
:105A70001425010034250100E024010080B584B024
:105A800000AF786039600023BB60134B1B68FB607C
:105A900017E0FB681B683A687968184609F07CFFD4
:105AA0000346002B0AD1FB681A683B6813441B7835
:105AB000002B03D1FB689B68BB6007E0FB680C33DD
:105AC000FB60064B1B68FA689A42E2D3BB68184633
:105AD0001037BD4680BD00BF900B0020940B002006
